{"abi":[{"type":"constructor","inputs":[{"name":"_merkleRoot","type":"bytes32","internalType":"bytes32"},{"name":"_verifier","type":"address","internalType":"address"}],"stateMutability":"nonpayable"},{"type":"function","name":"castVote","inputs":[{"name":"proof","type":"bytes32[]","internalType":"bytes32[]"},{"name":"proposalId","type":"uint256","internalType":"uint256"},{"name":"vote","type":"uint256","internalType":"uint256"},{"name":"nullifierHash","type":"bytes32","internalType":"bytes32"}],"outputs":[{"name":"","type":"bool","internalType":"bool"}],"stateMutability":"nonpayable"},{"type":"function","name":"proposals","inputs":[{"name":"proposalId","type":"uint256","internalType":"uint256"}],"outputs":[{"name":"description","type":"string","internalType":"string"},{"name":"deadline","type":"uint256","internalType":"uint256"},{"name":"forVotes","type":"uint256","internalType":"uint256"},{"name":"againstVotes","type":"uint256","internalType":"uint256"}],"stateMutability":"view"},{"type":"function","name":"propose","inputs":[{"name":"description","type":"string","internalType":"string"},{"name":"deadline","type":"uint256","internalType":"uint256"}],"outputs":[{"name":"","type":"uint256","internalType":"uint256"}],"stateMutability":"nonpayable"}],"bytecode":{"object":"0x608060405234801561001057600080fd5b506040516108f53803806108f583398101604081905261002f91610059565b600191909155600080546001600160a01b0319166001600160a01b03909216919091179055610096565b6000806040838503121561006c57600080fd5b825160208401519092506001600160a01b038116811461008b57600080fd5b809150509250929050565b610850806100a56000396000f3fe608060405234801561001057600080fd5b50600436106100415760003560e01c8063013cf08b146100465780638d1cb8b514610072578063e04ffd7314610093575b600080fd5b610059610054366004610460565b6100b6565b6040516100699493929190610479565b60405180910390f35b610085610080366004610523565b610166565b604051908152602001610069565b6100a66100a13660046105bd565b6101eb565b6040519015158152602001610069565b6003602052600090815260409020805481906100d190610679565b80601f01602080910402602001604051908101604052809291908181526020018280546100fd90610679565b801561014a5780601f1061011f5761010080835404028352916020019161014a565b820191906000526020600020905b81548152906001019060200180831161012d57829003601f168201915b5050505050908060010154908060020154908060030154905084565b60408051608081018252838152602080820184905260008284018190526060830181905260025481526003909152918220815181906101a59082610702565b506020820151816001015560408201518160020155606082015181600301559050506001600260008282546101da91906107d8565b909155505060025490505b92915050565b60008181526004602052604081205460ff161561024f5760405162461bcd60e51b815260206004820181905260248201527f50726f6f6620686173206265656e20616c7265616479207375626d697474656460448201526064015b60405180910390fd5b60008481526003602052604090206001015442106102a85760405162461bcd60e51b81526020600482015260166024820152752b37ba34b733903832b934b7b21034b99037bb32b91760511b6044820152606401610246565b6000828152600460209081526040808320805460ff19166001908117909155548151928301528101869052606081018590526080810184905260a00160408051601f198184030181528282528051602091820120908301520160405160208183030381529060405280519060200120905061032686600154836103cb565b6103625760405162461bcd60e51b815260206004820152600d60248201526c24b73b30b634b210383937b7b360991b6044820152606401610246565b8360010361039757600085815260036020526040812060020180546001929061038c9084906107d8565b909155506103bf9050565b60008581526003602081905260408220018054600192906103b99084906107d8565b90915550505b50600195945050505050565b6000826103d885846103e1565b14949350505050565b600081815b84518110156104265761041282868381518110610405576104056107eb565b602002602001015161042e565b91508061041e81610801565b9150506103e6565b509392505050565b600081831061044a576000828152602084905260409020610459565b60008381526020839052604090205b9392505050565b60006020828403121561047257600080fd5b5035919050565b608081526000855180608084015260005b818110156104a757602081890181015160a086840101520161048a565b50600060a0828501015260a0601f19601f83011684010191505084602083015283604083015282606083015295945050505050565b634e487b7160e01b600052604160045260246000fd5b604051601f8201601f1916810167ffffffffffffffff8111828210171561051b5761051b6104dc565b604052919050565b6000806040838503121561053657600080fd5b823567ffffffffffffffff8082111561054e57600080fd5b818501915085601f83011261056257600080fd5b8135602082821115610576576105766104dc565b610588601f8301601f191682016104f2565b9250818352878183860101111561059e57600080fd5b8181850182850137600091830181019190915290969401359450505050565b600080600080608085870312156105d357600080fd5b843567ffffffffffffffff808211156105eb57600080fd5b818701915087601f8301126105ff57600080fd5b8135602082821115610613576106136104dc565b8160051b92506106248184016104f2565b828152928401810192818101908b85111561063e57600080fd5b948201945b8486101561065c57853582529482019490820190610643565b9b918a01359a505060408901359860600135975095505050505050565b600181811c9082168061068d57607f821691505b6020821081036106ad57634e487b7160e01b600052602260045260246000fd5b50919050565b601f8211156106fd57600081815260208120601f850160051c810160208610156106da5750805b601f850160051c820191505b818110156106f9578281556001016106e6565b5050505b505050565b815167ffffffffffffffff81111561071c5761071c6104dc565b6107308161072a8454610679565b846106b3565b602080601f831160018114610765576000841561074d5750858301515b600019600386901b1c1916600185901b1785556106f9565b600085815260208120601f198616915b8281101561079457888601518255948401946001909101908401610775565b50858210156107b25787850151600019600388901b60f8161c191681555b5050505050600190811b01905550565b634e487b7160e01b600052601160045260246000fd5b808201808211156101e5576101e56107c2565b634e487b7160e01b600052603260045260246000fd5b600060018201610813576108136107c2565b506001019056fea264697066735822122065474d99c288a7d402363f8af17a0f5c36b5e5b39b1db80ac7908fe82eb8eae964736f6c63430008150033","linkReferences":{}},"methodIdentifiers":{"castVote(bytes32[],uint256,uint256,bytes32)":"e04ffd73","proposals(uint256)":"013cf08b","propose(string,uint256)":"8d1cb8b5"},"id":45}